:020000040000FA
:0400000006EF00F017
:020008001000E6
:10000C001ED8C69ABE8AE80E026E030E036E09D87D
:10001C00BE9AE80E026E030E036E03D8F3D70300EC
:10002C00FED7032A8E0E016E010E006E002EFED737
:10003C00012EFAD7022EF6D7032EF4D712000001A8
:10004C00600EAD6FAF6BB36BB06B600EAD6F020E2D
:10005C00B16FF86A0301F395F39F0401006B086B11
:10006C00106B206B0001749F709FCE6ACF6AD06AB0
:06007C00D16AD26A1200F5
:020000040030CA
:0A000000ECFFE7F79FFFFFFFFFFF93
:00000001FF
