:1000000080311A28003008007E1480312000111C35
:1000100016282600290803190F280130A9022C08E8
:10002000031914280130AC02200011108B314F232A
:100030007E10090080311C287930840090308500C2
:10004000CB308600003087000030FF000530903153
:10005000E4208031C130840090308500603086001B
:10006000033087000030FF000B309031E4208031F6
:10007000E130840092308500A03086000330870094
:100080000030FF0023309031E4208031D8308400EC
:10009000223085001830FE000130FF009031D8205A
:1000A0008031ED01EE01EF012100C201C301C40165
:1000B000C501C601C701C801C901CA0120308400B9
:1000C000033085002630FE000030FF009031D8203C
:1000D0008031C3308400033085002030FE000030C2
:1000E000FF009031D820803120308400043085001A
:1000F0002030FE000030FF009031D8207E1020001C
:100100008A31492A2100A5014C08BC004B08BB00DC
:100110003B0886003C088700413106300106031D7C
:1001200067293B0886003C08870080300106031DD4
:1001300067293B0886003C0887004231403F200089
:10014000DD00413FDE005E082100B6003B0886006E
:100150003C08870042310108B7003603031DCF2851
:100160003A302000C9009930CA003A3084009930F2
:1001700085000008DD00DE015D08CB005E08CC00D4
:1001800021003B0886003C0887004631403F2000A4
:10019000CD00413FCE00973170278031DD2B0230FA
:1001A0003606031D0C2937080319DA2890318420FC
:1001B0008031DD2B3735693E860003308700403FB4
:1001C000AB00413FAC002C082000CA0021002B08E6
:1001D0002000C90021002C082000DE0021002B088F
:1001E0002000DD0002305D0784005E0803185E0A0F
:1001F0008500003FCB00013FCC0021003B0886007A
:100200003C0887004631403F2000CD00413FCE00F2
:10021000973170278031DD2B03303606031D3A29D4
:10022000B830F000370896315C2680317108AE0096
:100230007008AD00AE1BD62839082000CA00210086
:1002400038082000C90021002E082000CC00210021
:100250002D082000CB0021003B0886003C088700C9
:100260004631403F2000CD00413FCE0097317027FE
:100270008031DD2B3C08F1003B08F000A930F20092
:1002800090316F2080317108B0007008AF00B01B52
:10029000D6282A082000CA00210029082000C90009
:1002A000210030082000CC0021002F082000CB00C6
:1002B00021003B0886003C0887004631403F200073
:1002C000CD00413FCE00973170278031DD2B3B08B8
:1002D00086003C088700413105300106031D802956
:1002E0002600B101B10A21003B0886003C088700C6
:1002F000423101082600B00090317E208031DD2B94
:100300003B0886003C088700413109300106031D87
:100310009E293B0886003C08870042310108B10055
:1003200031088731FF2780318C3160248031903152
:100330007E20803121003108CA00DD2B3B08860079
:100340003C088700413108300106031DBF29CA302F
:100350002000C9000030CA000130CB000030CC00C2
:1003600021003B0886003C0887004631403F2000C2
:10037000CD00413FCE00973170278031DD2B3B0807
:1003800086003C08870041310108031D582A3B08BC
:1003900086003C08870001081F39003A031DEF2939
:1003A0009031622080317108A8007008A700A73042
:1003B0002000C9000030CA000230CB000030CC0061
:1003C00021003B0886003C0887004631403F200062
:1003D000CD00413FCE00973170278031DD2B3B08A7
:1003E00086003C08870001081F39023A031DD62801
:1003F0003B0886003C088700443101080F39B200F1
:10040000053032020318D62832082000DD00DE0154
:100410005D08F0005E08F1000730F2000030F300E4
:100420009131C0218031A6302000DF000330E00090
:1004300070085F0786007108603D87000108210091
:10044000B3003B0886003C0887004431811B2B2AFF
:10045000330801392D2A330802392000DD00DE017E
:100460005D082100A00020005E082100A1002008F6
:10047000210403193D2A01303E2A0030A300A401C3
:10048000A3302000C9000030CA000230CB00003089
:10049000CC0021003B0886003C0887004631403FE5
:1004A0002000CD00413FCE00973170278031DD2BF9
:1004B0003B0886003C08870041310B300106031DD4
:1004C000752A3B0886003C08870042310108F0008D
:1004D0003B0886003C088700443101088031022037
:1004E0008031A200A21BD6287C293B0886003C084C
:1004F000870041310A300106031DA22A3B0886000D
:100500003C08870044310108903160208031B500FB
:10051000B51BD628B5302000C9000030CA00013014
:10052000CB000030CC0021003B0886003C0887004F
:100530004631403F2000CD00413FCE00973170272B
:100540008031DD2B3B0886003C08870041310103E8
:100550000319B32A3B0886003C0887004131033069
:100560000106031DDB2BA601A60A3B0886003C08FA
:10057000870001081F39023A031DD72B3B0886006C
:100580003C088700423116000104031DD72B3B08AD
:1005900086003C088700443101080F39BA003B0847
:1005A00086003C088700443101088039B4000530DA
:1005B0003A020318D72B3B0886003C0887004131DC
:1005C00003300106031DF12A34080319EC2A3A0806
:1005D000933175238031BF2B3A0893310423803146
:1005E000BF2B340803194C2B3A082000DD000230E1
:1005F000DD35FF3E031DF82A5D35253E8600870167
:1006000021003A082000DE00DF015E08F0005F08EC
:10061000F1000730F2000030F3009131C021803149
:10062000A5302000E0000330E1007008600784007E
:100630007108613D85000008810021003A08200012
:10064000DD000230DD35FF3E031D222B5D35243EEB
:10065000860087018101F730DD0021003A08200083
:10066000DE00DF015E08F0005F08F1000730F200F5
:100670000030F3009131C0218031A6302000E0002D
:100680000330E1007008600786007108613D870053
:100690005D088105FD30A12B3A082000DD00023005
:1006A000DD35FF3E031D502B5D35213E8600870161
:1006B00021003A082000DE00DF015E08F0005F083C
:1006C000F1000730F2000030F3009131C021803199
:1006D000A4302000E0000330E100700860078400CF
:1006E0007108613D85000008810021003A08200062
:1006F000DD000230DD35FF3E031D7A2B5D35203EE7
:10070000860087018830810021003A082000DD0042
:10071000DE015D08F0005E08F1000730F2000030F5
:10072000F3009131C0218031A6302000DF0003307A
:10073000E00070085F0786007108603D87000115C2
:10074000FE30DD0021003A082000DE00DF015E08F7
:10075000F0005F08F1000730F2000030F300913143
:10076000C0218031A6302000E0000330E100700895
:10077000600786007108613D87005D0881052100E2
:100780003B0886003C088700413103300106031D09
:10079000CB2B0130CC2B0030F0003B0886003C080E
:1007A000870044310108903155208031A601260888
:1007B00003197C29D628A501A503210025080800D6
:1007C000570855072600CA0025005808563D260040
:1007D000CB0026004B0825005602031DF32B2600F4
:1007E0004A082500550203180800550886005608D7
:1007F0008700413101082600DA00582E26005A1CD5
:10080000042C22008E158E2E22008E118E2E260094
:10081000DA1C142C5A1C0F2C22000C16112C22004E
:100820000C1221000C128E2E21000C168E2E26008A
:10083000DA1C242C5A1C1F2C22008C16212C22007E
:100840008C1221008C128E2E21008C168E2E2600EA
:10085000D90121000C1601302600DA025A0A0319C8
:100860008E2EDB0122008C16000022008C1200006C
:1008700020000C0E01392500D9002600593525002D
:1008800059042600D90001302500D9005908260056
:10089000DB0708305B02031C322C59082500D2000C
:1008A000260025088A0024080A0084312B2C210008
:1008B0000C1201302600DA025A0A03198B2C25008B
:1008C0005508860056088700423101082600D900E5
:1008D00001302500D5070030D63D2600DB01D91FA9
:1008E000742C22000C16762C22000C120000220020
:1008F0008C16000003102600D90D22008C120C1259
:1009000001302500D90059082600DB0708305B02BA
:100910000318592C6F2C0330CE0001302600CE0274
:100920004E0A03198E2E0000000000008D2C0130AD
:100930002600DA025A0A03198E2E34082500B60062
:10094000260033089231A022833126003508CF00DB
:1009500001302600CF024F0A0319B22C000000001C
:100960000000A82C21000C162600390891316521C1
:1009700083312600D901D801DB013A085B02031854
:10098000EF2C22008C16000022008C1220000C0E8E
:1009900001392500D90026005935250059042600C3
:1009A000D90007305B052500D90007305906031D23
:1009B000E82C26005808463E860003308700590878
:1009C000810001302500D90059082600D807D90137
:1009D00001302500D90059082600DB07BD2C5B0833
:1009E000073903190A2D5B080739083C890AFA2CD4
:1009F0000310D90DFF3E031DF82C5808463E860013
:100A0000033087005908810001302500D9005908BA
:100A10002600D8073B08913165218331260038082C
:100A2000D00001302600D002500A03191B2D00000F
:100A300000000000112D37082500B60026003608FA
:100A40009231A022833126003C08D10001302600DB
:100A5000D102510A0319302D000000000000262D9C
:100A6000DB0158085B020318972C5B08463E8600A2
:100A70000330870001082500D200260025088A00DF
:100A800024080A00853101302500D90059082600C4
:100A9000DB07312D01302600DA025A0A03198E2EA7
:100AA00034082500B600260033089231A022833195
:100AB00026003508D20001302600D202520A03195E
:100AC000652D0000000000005B2D22000C122600A6
:100AD0003908913165218331550886005608870011
:100AE000423101082600D90001302500D507003029
:100AF000D63D2600DB013A085B020318AA2DD91F58
:100B0000842D22000C16862D22000C1203102600C4
:100B1000D90D22008C16073026005B052500D90070
:100B200007305906031DA12D550886005608870079
:100B3000423101082600D90001302500D5070030D8
:100B4000D63D22008C1201302500D900590826001C
:100B5000DB077B2D5B080739031DB32D0130250012
:100B6000D5020030D63B22000C1226003B08913102
:100B70006521833126003808D30001302600D302D6
:100B8000530A0319C72D000000000000BD2D3708CF
:100B90002500B600260036089231A02283312600B7
:100BA0003C08D40001302600D402540A03194A2D0F
:100BB000000000000000D22D26005A08D5000130A8
:100BC0002600D502550A03198E2E000000000000F1
:100BD000DF2D01302600DA025A0A03198E2E0A3060
:100BE000D60001302600D602560A0319E92D00006E
:100BF00000000000F12D26005A082500D900DA0176
:100C00005908B6005A08B7000A30B8000030B900D9
:100C100092311122833137082600CD002500360895
:100C20002600CC000130CC020030CD3B4C0A031929
:100C30004D0A03198E2E6430D70001302600D702EA
:100C4000570A0319122E0000000000001D2E260076
:100C50005A082500D200260025088A0024080A0028
:100C600086318E2E26005A08323E860003308700D9
:100C700025005508840056088500023100088100CF
:100C80000130D5070030D63D8E2E3230B60003300D
:100C9000B7000030B800B9000B30BA000030BB001C
:100CA0009131902183310130D5020030D63B8E2E18
:100CB000250055088600560887000108D900DA018A
:100CC0005A08003A0319652E8E2E5908013A031965
:100CD000FE2B033A0319072C013A0319172C073A84
:100CE0000319272C013A0319572C033A0319972C9F
:100CF000013A03194A2D0F3A0319DC2D013A031961
:100D0000E92D033A0319FB2D013A0319272E073A5F
:100D10000319322E013A0319452E8E2E023025007A
:100D2000D5070030D63DE92B3D000E172100CF013D
:100D30002500D6015608CE00CF014E08B6004F0858
:100D4000B7000730B8000030B90092311122863167
:100D5000A630D0000330D10036085007D200370843
:100D6000513DD300520886005308870004308100AB
:100D70000130CE004E08D60705305602031C9A2ECD
:100D80002030B6000030B7000030B800B90028307D
:100D9000BA000030BB0091319021863121004C080F
:100DA0002500BD0021004B082500BC0094314B24D8
:100DB00086313D082000A30025003C082000A20049
:100DC0000830A1008030A00021004E082500BD00A1
:100DD00021004D082500BC0094314B2486313D088C
:100DE0002000A70025003C082000A6000830A50030
:100DF000A4012500D601D60A5608CE00CF014E0820
:100E0000B6004F08B7000730B8000030B900923183
:100E100011228631A030D0000330D10036085007AF
:100E200086003708513D8700403FD400413FD50040
:100E30005508BD005408BC0094314B248631560837
:100E4000CE000230CE35FF3E031D222F4E35223E0E
:100E5000860087013C08C03F3D08C13F5608CE00D0
:100E60000230CE35FF3E031D312F4E35213E860028
:100E700087015608CF00D0014F08B6005008B700D0
:100E80000730B8000030B900923111228631A43009
:100E9000D1000330D2003608510784003708523D94
:100EA0008500000881005608CE000230CE35FF3E96
:100EB000031D562F4E35203E860087018830810065
:100EC0005608CE00CF014E08B6004F08B7000730D5
:100ED000B8000030B900923111228631A230D00022
:100EE0000330D1003608500786003708513D87008F
:100EF000403FD400413FD5005508BD005408BC0018
:100F000094314B2486315608CE000230CE35FF3E58
:100F1000031D862F4E35263E860087013C08C03FC4
:100F20003D08C13F5608CE000230CE35FF3E031DBE
:100F3000952F4E35253E860087015608CF00D001FB
:100F40004F08B6005008B7000730B8000030B900AD
:100F5000923111228631A530D1000330D2003608FB
:100F6000510784003708523D85000008810056086B
:100F7000CE000230CE35FF3E031DBA2F4E35243E43
:100F80008600870181010130CE004E08D60705306A
:100F90005602031CFC2E3D000E130800C20042083E
:100FA000BE00BF013E08B6003F08B7000730B800DA
:100FB0000030B900923111228731A030C0000330D7
:100FC000C1003608400786003708413D87003C08CD
:100FD00084003D088500403F803F413F813F4208FB
:100FE000BE000230BE35FF3E031DF22F3E35213ECE
:100FF000860087010108080021004A08080008004F
:1010000020302500CB000430CC0020006F082500E4
:10101000D200D3015208CD005308CE0002309331E4
:101020009C232000EF0108002500C2004208BC00FC
:10103000BD013C08B6003D08B7000730B8000030DD
:10104000B900923111228831A630BE000330BF00B2
:1010500036083E07860037083F3D8700011D3228CD
:10106000013033280030C1004108031969284208C3
:10107000BC000230BC35FF3E031D3A283C35213E02
:10108000860087014208BD00BE013D08B6003E084B
:10109000B7000730B8000030B90092311122883112
:1010A000A430BF000330C00036083F078400370873
:1010B000403D8500000881004208BC000230BC357C
:1010C000FF3E031D5F283C35203E86008701C83067
:1010D0009A284208BC000230BC35FF3E031D6C2834
:1010E0003C35213E860087014208BD00BE013D0817
:1010F000B6003E08B7000730B8000030B9009231A2
:1011000011228831A430BF000330C00036083F07E9
:1011100084003708403D8500000881004208BC007B
:101120000230BC35FF3E031D91283C35203E860031
:101130008701883081000430BC004208BD00BE0138
:101140003D08B6003E08B7000730B8000030B900CF
:1011500092311122A630BF000330C00036083F078D
:1011600086003708403D87003C08810608002000C3
:101170002108CB0021004703031DD32820006D0860
:101180006E040319D028F201F20A21004308F4008A
:101190004208F30020006E088A006D080A008831BA
:1011A0009031A020080048080319080020004B08CF
:1011B000FB00FC01210045087C02031DE1284408D6
:1011C0007B02031CEB2845082000C90021004408CD
:1011D0002000C800F32820004B08FB00FC017B081E
:1011E000C8007C08C9004808CC0021004808F0006D
:1011F000FF39031D0330F1004C08F3004B08F200E7
:1012000020004C08FB00FC017B08F4007C08F50082
:101210009331292388314C08FB007B082100C80743
:1012200020004C08FB00FC017B082100C4027C0864
:10123000C53B083020004B02031C23292100440831
:101240004504031D080020004B084C0203183C29EC
:101250009031842088316D086E040319D028F20182
:1012600021004308F4004208F30020006E088A00C1
:101270006D080A008931D028CA016D086E0403196F
:101280005029F201F20A21004308F4004208F30059
:1012900020006E088A006D080A0089312000CA000B
:1012A000CA1F5629903184208831582990317E20D8
:1012B000ED01EE0108003D2AD8308600223087007B
:1012C0005C0884005D0885000008C03F0130DC0731
:1012D0000030DD3DD8308600223087000108031938
:1012E0003D2A0130A0000030A1000130A1295C0896
:1012F00086005D0887000108A8000130DC07003087
:10130000DD3DD8302500DB002230DC00260020083F
:1013100025005B07DD002600210825005C3DDE007E
:101320005D0886005E0887002600280881000130DD
:10133000A0070030A13D28080319A0290230A129E7
:101340000330A2000030A300DF295C0886005D089E
:10135000870001082500DB00D830DC002230DD00EA
:101360002600200825005C07DE0026002108250055
:101370005D3DDF005E0886005F0887005B08810036
:1013800001302600DC070030DD3D0130A0070030D1
:10139000A13D0130A80228080319A029DF2923084C
:1013A000003A0319D429DF292208003A03195C29DD
:1013B000013A03197729033A0319A529DF290330D4
:1013C00022062304031D3D2AA201A301282AFF307F
:1013D000D200260025088A0024080A0089318830B6
:1013E0002500D200260025088A0024080A00893139
:1013F0002500D201D20A260025088A0024080A0006
:101400008A312500D201260025088A0024080A0016
:101410008A3106302500D200260025088A002408DB
:101420000A008A31262ADA30D5002230D600D83098
:1014300086002230870041310108DB00DC015B08B7
:10144000D7005C08D8008331E023893126003D2A8B
:10145000D83086002230870001082500DB00DC013F
:101460005C08003A0319352A3D2A5B087F3A0319C4
:10147000E729FF3A0319132A3D2A01302600DE022C
:101480000030DF3B5E0A031DCF295F0A0319080005
:10149000CF2923008C018E01903197208A3195311C
:1014A0008E258A319131A8218A319031AB208A3141
:1014B000903174208A31EB302500B6001330B7002C
:1014C0009031F0208A318B172600290803196B2AE6
:1014D00022000E116D2A22000E158731FC278A3159
:1014E000003A0319642A0230923148228A31003AC4
:1014F000031DAB2A0230913140218A31003A031991
:10150000AB2AE530BC000230BD0002308731CE2767
:101510008A31E000E1016008E2006108E30066084A
:101520002600DD00250065082600DC002500630894
:101530002600DF00250062082600DE0089315B21DD
:101540008A310230883114208A3105302600A90002
:10155000883100208A312000911EEC2A23009D1C36
:10156000B82A1D1219082500E40023001D16BB2A05
:1015700019082500E40026002D08C33E860003302C
:1015800087002500640881000130E0006008260023
:10159000AD0720302D02031CE82A043092312C22A2
:1015A0008A31003A031DE52AC330CB000330CC005A
:1015B00026002D082500E000E1016008CD0061084B
:1015C000CE00043093319C238A312600AD01EA2AF3
:1015D0000230AC000530A90026002C08031D072BA3
:1015E0002D080319072BC3302500CB000330CC0096
:1015F00026002D082500E000E1016008CD0061080B
:10160000CE00043093319C238A312600AD012B0893
:10161000031D252B0430923148228A31003A031DE4
:10162000252B0430913140218A31003A0319252BB2
:101630004430BC000330BD0004308731CE278A31EE
:101640002600AB00AA010530A9002000111E642A63
:1016500026002B080319642A2A082500E000E1016E
:101660006008260044078600250061082600453DE5
:101670008700010823009A0001302500E00060087F
:101680002600AA072B082A02031C4B2BAB010430AF
:10169000883114208A3105302600A900642A3D00D3
:1016A000101C5A2B903154208B3195312E258B31C3
:1016B0003D001010901E8F2B01302100BF00003024
:1016C000C00098302000E8000E30E90021003F08FB
:1016D00020006807EA00210040082000693DEB0077
:1016E0006A082100BD0020006B082100BE003D08F3
:1016F00086003E08870001100130BF070030C03D62
:101700004008803A2000E80080306802031D8B2BDF
:10171000053021003F02031C612B3D0090129019FF
:10172000921D552C0F0C2000E800E80C680C0F39B6
:10173000003A031DBE2B3D000F19BE2B2000200CCC
:10174000890C0F392100C1000D304106031DAC2B5F
:101750009431DB248B31BA2B093041060319BA2BA3
:101760004103031DB72B8831B7208B31BA2B903141
:1017700084208B3190318A208B31532C3D000F0C0B
:101780002000E800E80C680C0F39003A031DCF2B4D
:101790003D000F1DCF2B9631E0268B31532C3D00A1
:1017A0000F0C2000E800E80C680C0F39003A031910
:1017B000532C3D000F0C2000E800E80C680C0F399A
:1017C000E900053069020318532C3D000F1D1E2C43
:1017D0000F0C2000E800E80C680C0F39E900EA0162
:1017E0006908F0006A08F1000730F2000030F300E9
:1017F0009131C0218B31A6302000EB000330EC008A
:1018000070086B07860071086C3D8700811C132CE3
:101810003D000F0C2000E800E80C680C0F399431F3
:1018200017248B31532C3D000F0C2000E800E80CEE
:10183000680C0F39903151208B31532C0F0C200044
:10184000E800E80C680C0F39E900EA016908F000CB
:101850006A08F1000730F2000030F3009131C02136
:101860008B31A6302000EB000330EC0070086B07D2
:10187000860071086C3D8700011C492C3D000F0C4F
:101880002000E800E80C680C0F399131F6218B310B
:10189000532C3D000F0C2000E800E80C680C0F39B9
:1018A000903152208B313D009011101F5B2C9031F4
:1018B00053208B3110132000121D08001211080054
:1018C0003D000E172100CF012000DC015C08D40090
:1018D000D5015408F0005508F1000730F20000303F
:1018E000F3009131C0218C31A6302000D6000330A6
:1018F000D70070085607D8007108573DD90058081E
:10190000860059088700043081000130D400540853
:10191000DC0705305C02031C662C2030F000003030
:10192000F1000030F200F3002830F4000030F50040
:10193000913178218C3121004C08F7004B08F600DA
:10194000943192248C3177082000A3007608A200FD
:101950000830A1008030A00021004E08F7004D089B
:10196000F600943192248C3177082000A700760885
:10197000A6000830A500A401DC01DC0A5C08D40044
:10198000D5015408F0005508F1000730F20000308E
:10199000F3009131C0218C31A0302000D6000330FB
:1019A000D7007008560786007108573D8700403FF2
:1019B000DA00413FDB005B08F7005A08F60094317B
:1019C00092248C3120005C08D4000230D435FF3ED4
:1019D000031DE62C5435223E860087017608C03F61
:1019E0007708C13F5C08D4000230D435FF3E031DA8
:1019F000F52C5435213E860087015C08D500D601C0
:101A00005508F0005608F1000730F2000030F300EE
:101A10009131C0218C31A4302000D7000330D80090
:101A20007008570784007108583D85000008810040
:101A30005C08D4000230D435FF3E031D1B2D543505
:101A4000203E86008701883081005C08D400D501E3
:101A50005408F0005508F1000730F2000030F300A0
:101A60009131C0218C31A2302000D6000330D70044
:101A70007008560786007108573D8700403FDA001E
:101A8000413FDB005B08F7005A08F60094319224CE
:101A90008C3120005C08D4000230D435FF3E031D99
:101AA0004D2D5435263E860087017608C03F7708C5
:101AB000C13F5C08D4000230D435FF3E031D5C2DCD
:101AC0005435253E860087015C08D500D6015508AF
:101AD000F0005608F1000730F2000030F3009131B9
:101AE000C0218C31A5302000D7000330D800700809
:101AF000570784007108583D8500000881005C0884
:101B0000D4000230D435FF3E031D822D5435243ECF
:101B10008600870181010130D4005408DC070530BC
:101B20005C02031CBE2C3D000E1308005F088600FB
:101B300060088700443101082100B90020005F08D7
:101B400086006008870041310108031D932F5F085C
:101B500086006008870021300106031D932F5F086F
:101B60008600600887004631403FF000413FF100A9
:101B70002100390890315C208D31A800A81F912FD9
:101B8000FF3008005F08860060088700A13001066A
:101B9000031D9B2F5F088600600887004631403F89
:101BA000F000413FF100AF30F200B130F300B3304C
:101BB000F40021003908903165208D317108B8009A
:101BC0007008B700B81BC02D20005F0886006008B1
:101BD00087004631403FE100413FE20062082100BA
:101BE0003802031DF72D2000610821003702031C75
:101BF000052E20005F088600600887004631403FC0
:101C00002100A000413FA100092E3808A10037089B
:101C1000A00021082000D900210020082000D800C1
:101C2000210032082000DB00210031082000DA000A
:101C3000210034082000DD00210033082000DC00F2
:101C400021002F0889008F2F5F0886006008870019
:101C500021300106031DA42F5F088600600887005D
:101C600042311600013AE1001600E104031DC02DC7
:101C700021003908C60020005F0886006008870040
:101C8000413101082600AE000230F0000030F100C2
:101C9000C330F2001330F3000030F400F5003D30A3
:101CA000913152218D31912F5F08860060088700A5
:101CB00021300106031DAD2F5F08860060088700F4
:101CC00042311600013AE1001600E104031DC02D67
:101CD00021003908C60020005F08860060088700E0
:101CE000413101082600AE000230F0000030F10062
:101CF000C330F2001330F3000030F400F5003D3043
:101D0000913152218D31912F5F0886006008870044
:101D1000A1300106031DB62F5F088600600887000A
:101D200042311600013AE1001600E104031DC02D06
:101D3000B530F000B630F1002100390890315A205A
:101D40008D31A900A91BC02D36082000E100E20159
:101D5000E135E20D6108210035042600BD002000B8
:101D600062082600BE0020005F0886006008870029
:101D70004631403FE100413FE20000306202023064
:101D800003196102031CCA2E02302100A200003098
:101D9000A300D42E5F088600600887004631403FCC
:101DA0002100A200413FA30023082000D900210008
:101DB00022084E2F5F088600600887002130010648
:101DC000031DBF2F21003908C60020005F088600D0
:101DD000600887004631403FE100413FE2000030AB
:101DE0006202073003196102031CFC2E0730210038
:101DF000A4000030A500062F5F0886006008870059
:101E00004631403F2100A400413FA5002508F100D4
:101E10002408F000CC30F2001030F3000030F40061
:101E2000F5003D30913152218D31912F5F088600B0
:101E300060088700A1300106031DC82F3D30F00067
:101E40002100390891310E218D31AA00AA1BC02D25
:101E500020005F088600600887004631403FE100AF
:101E6000413FE20000306202073003196102031CA7
:101E70003F2F07302100A6000030A700492F5F0840
:101E80008600600887004631403F2100A600413FA0
:101E9000A70027082000D900210026082000D8002C
:101EA0000030DA00DB000030DC00DD003D308F2F39
:101EB0005F0886006008870021300106031DD12FCE
:101EC0005F088600600887004231011C692F0130DD
:101ED0006A2F00302100AC0020005F0886006008F7
:101EE00087004231811C762F0130772F003021008E
:101EF000AD002C08F0002D08F100390890315E206B
:101F00008D31AB00AB1BC02D00302000D800D900B4
:101F10000030DA00DB000030DC00DD00030192312C
:101F20008122003008005F08860060088700413188
:101F300001030319C22D5F08860060088700413144
:101F4000023001060319242E5F088600600887000E
:101F50004131043001060319542E5F0886006008E1
:101F600087004131033001060319842E5F08860083
:101F7000600887004131203001060319DA2E5F081E
:101F80008600600887004131213001060319162FB1
:101F90005F0886006008870041312230010603197E
:101FA000582F5F0886006008870041312330010602
:101FB000031DC02D5F0886006008870021300106E0
:101FC000031DC02D5F088600600887004231403F36
:101FD000F000413FF1002100390891312E218D316F
:101FE0002100AE00AE1BC02D00302000D800D9006B
:101FF0000030DA00DB000030DC00DD0003018F2F51
:1020A20008000800080008000800FF300800FF30A0
:1020B2000800FF300800FF30080000300800003040
:1020C2000800F001F1010800FF30F000FF30F100DC
:1020D200080008302000A500A4010800FF30F0002D
:1020E200FF30F100080022000E1521000E11080039
:1020F200803420348834203400342000A401A50127
:10210200C830A400080008302000A5008430A400D4
:10211200080008302000A1008030A00008006408F8
:10212200E0006308DF008D31962508003C30210075
:10213200990427001B169B170B178B170800260004
:10214200A601A7012100C801C401C5012000ED01BB
:10215200EE0108002000981318139812181618148C
:102162001110210011140B1708002600A601A70167
:102172002100C801C401C5012000ED01EE010800E3
:102182000034C234013400340034003408341534CD
:102192009934003498347208031DD128FF300800A6
:1021A2003D30F000210046089031FE200800640016
:1021B200800101310130FE020030FF3B7F087E04C6
:1021C20003190034D928FE0012001E000130FE025D
:1021D2000030FF3B7F087E0403190034E5283708EE
:1021E2002600A500250036082600A40021008C1632
:1021F2000C168E1122008E1508007008860003301E
:10220200870060308400033085000730F10016003B
:102212001A00F10B082900300800603086000330F4
:10222200870070088400033085000730F100160033
:102232001A00F10B182900300800B7003708B60061
:102242000230B635FF3E031D22293635243E860074
:102252008701010D010D01390800F20002307206FA
:10226200031D3E297008710403193E2923009E159F
:102272002000111E392923009A0100300800B700FE
:102282003708B6000230B635FF3E031D4429363505
:10229200203E860087010310811F03140030093D90
:1022A2000800F6009031A0207308EE007208ED00DD
:1022B20076082100C8007108C5007008C4007508BE
:1022C200C3007408C20008002500B700B80137082F
:1022D200380203180800000022008C1600002200B9
:1022E2008C1201302500B6003608B807682971083B
:1022F200F7007008F6000130F4020030F53B740A72
:102302000319750A03190800760886007708870002
:10231200720881000130F6070030F73D7C2937084A
:10232200BD003608BC000130BA020030BB3B3A0A9D
:1023320003193B0A031908003C0886003D08870080
:10234200380881000130BC070030BD3D9429673058
:102352002500B6000030B70021008E160E12243080
:1023620023009E0090309D0000309C0067309B004F
:102372002500370823009C0008309F000800F40164
:10238200F501701CC8297208F4077308F53D013085
:10239200F235F30D890BC9290130F136F00C890BA6
:1023A200CE2970087104031DC2297508F100740852
:1023B200F0000800FA007A08F600F7017608F0004B
:1023C2007708F1000730F2000030F3009131C021AC
:1023D200A630F8000330F90070087807860071080B
:1023E200793D8700010802390800F1007108F00008
:1023F2000230F035FF3E031DFA297035213E86007A
:10240200870181017108F0000230F035FF3E031DA3
:10241200062A7035203E860087018430810008003C
:10242200BA01BB01361C192A3808BA073908BB3D64
:102432000130B835B90D890B1A2A0130B736B60CFE
:10244200890B1F2A36083704031D132A3B08B700DD
:102452003A08B60008002500C0004008BC00BD01D3
:102462003C08B6003D08B7000730B8000030B9009C
:1024720092311122A630BE000330BF0036083E075B
:10248200860037083F3D8700010802390800250011
:10249200C0004008BC00BD013C08B6003D08B700C2
:1024A2000730B8000030B90092311122A630BE00C8
:1024B2000330BF0036083E07860037083F3D8700DD
:1024C200010801390800C2004208BE00BF013E08EF
:1024D200B6003F08B7000730B8000030B9009231AB
:1024E2001122A230C0000330C10036084007860026
:1024F2003708413D8700403FBC00413FBD00080016
:102502002000DE005B08EE005A08ED005D082100A5
:10251200C30020005C082100C20020005E08C90040
:10252200FF39031D0330CA005908CC005808CB00FC
:102532005908CE005808CD009731702708002500B1
:10254200B80021000C122500B9013608390203181F
:102552000800B81FAF2A22000C16B12A22000C1262
:10256200000022008C1603102500B80D22008C12E8
:102572000C1201302500B7003708B907A62A00302F
:102582009131DB219231003A031D08002100CF1D59
:10259200CC2A0130CD2A00302000C800A40148080E
:1025A2000319D72A7B08A500C830DA2A7B08A500C0
:1025B2008830A4000830FD007D082100CF06080005
:1025C20000340034003400340034003400349034D9
:1025D20020349134203401340A3400349B342034C2
:1025E200DB3420344034403400341B3421341C3476
:1025F200213401340A34003426342134663421343F
:10260200403440340034FA007A08031908000530D7
:102612007A02031808007A08F600F7017608F0003B
:102622007708F1000730F2000030F3009131C02149
:102632009331A630F8000330F9007008780786005D
:102642007108793D870001147A089131F62108005A
:102652007308F9007208F8007108F7007008F600B4
:102662000130F4020030F53B740A0319750A0319AC
:10267200080078088400790885000008FA00013013
:10268200F8070030F93D76088600770887007A0857
:1026920081000130F6070030F73D312B3908C000C8
:1026A2003808BF003708BE003608BD000130BA0244
:1026B2000030BB3B3A0A03193B0A031908003F08E2
:1026C2008400400885000008BC000130BF070030CC
:1026D200C03D3D0886003E0887003C08810001306D
:1026E200BD070030BE3D572BFC007C0803190800D3
:1026F20005307C02031808007C082000C800C901CC
:102702004808F0004908F1000730F2000030F300F9
:102712009131C0219331A6302000CA000330CB0092
:1027220070084A07860071084B3D870081147C08B7
:10273200943117240800D100510891311E219331A0
:10274200003A031D9D2B51089231642293313D08BA
:10275200D0003C08CF005008B7004F08B6004C0824
:10276200B9004B08B8004E08BB004D08BA009331BF
:102772004F2393314E08C2004D08C10051089531D4
:10278200F02508007208031DC82BFF300800260040
:102792003D1CCD2B0130CE2B0030F500BD1CD32BC0
:1027A2000130D42B0030F60002302E06031DE22B3E
:1027B2007508F0007608F100210046089031582093
:1027C20008007508F0007608F100210046089031F3
:1027D2005620080020006F08203E86000430870043
:1027E2002500520881000130D30053082000EF0772
:1027F20020306F02031C0800043092312C229331E6
:10280200003A031D142C2030CB000430CC002000F1
:102812006F082500D300D4015308CD005408CE0020
:10282200023093319C232000EF010800FB007B085B
:10283200F6000230F635FF3E031D1B2C7635253E91
:10284200860087017B08F700F8017708F000780816
:10285200F1000730F2000030F3009131C0219431D1
:10286200A530F9000330FA00700879078400710876
:102872007A3D8500000881007B08F6000230F635BB
:10288200FF3E031D402C7635243E860087018430AE
:10289200810008003D08CD003C08CC0020304D02EC
:1028A200003003194C02031C5B2C4D08BD004C0880
:1028B200BC0008004D08CA004C08CB004B087F3909
:1028C200BE00BF014B088039C000C1014A08C200E6
:1028D200C301C235C30D40084207C4004108433D4D
:1028E200C500440845040319782C0130792C0030C6
:1028F200C600C7014608B6004708B7005030B80006
:102902000030B900923111223E083607C8003F0854
:10291200373DC9004808E03EBC001F30493DBD00BC
:1029220008007708FB007608FA0020307B020030AE
:1029320003197A02031CA22C7B08F7007A08F6001E
:1029420008007B08F8007A08F90079087F3920002E
:10295200C800C90179088039CA00CB017808CC00C7
:10296200CD01CC35CD0D4A084C07CE004B084D3D6C
:10297200CF004E084F040319C02C0130C12C003087
:10298200D000D1015008F0005108F1005030F2009F
:102992000030F3009131C021200048087007D200B6
:1029A2004908713DD3005208E03EF6001F30533D06
:1029B200F70008004C082000E70021004B08200027
:1029C200E60066088600670887000030811B013038
:1029D2002100C70090316A209431A41FF32C0830E3
:1029E200A500A40121004408450403190C2D200070
:1029F2006D086E040319092DF20121004308F40049
:102A02004208F30020006E088A006D080A00953122
:102A12009031A02094312000660886006708870064
:102A2200010E890C0339003A031D1E2D80318220CC
:102A320094312000E500E51F2B2D6708E4006608AD
:102A4200E3009031902094312000E500E51F2B2D0A
:102A5200903184203D000E12080011109110920155
:102A620097018E1511161115901190119011901158
:102A7200900192159216121412179830F0000E302F
:102A8200F1000030F200F3001030F4000030F500E5
:102A92009131782195313D00181698111815981426
:102AA20018102000DD01DD0A5D08983EFC00FD01E2
:102AB2000E30FD3D7C08DE007D08DF005E088600EA
:102AC2005F08870001165E0886005F08870081158F
:102AD2005E0886005F08870001155E0886005F08B1
:102AE200870081145E0886005F08870001100130AC
:102AF200FC007C08DD0705305D02031C552D3D00FE
:102B020096012600B1012100CA018C316024953161
:102B12009031A0202100121508003D0011109110E3
:102B2200920197018E1511161115901190119011A5
:102B320090119001921592161214121798302500D6
:102B4200B6000E30B7000030B800B9001030BA003D
:102B52000030BB009131902195313D00181698113B
:102B62001815981418102500D901D90A5908983E49
:102B7200D700D8010E30D83D5708DA005808DB00DC
:102B82005A0886005B08870001165A0886005B080F
:102B9200870081155A0886005B08870001155A08CC
:102BA20086005B08870081145A0886005B0887004C
:102BB20001100130D7005708D90705305902031C0C
:102BC200B72D3D0096012600B1012100CA018631D0
:102BD200942695319031B620210012150800C900C3
:102BE20021004A08031908002500490892312C22C5
:102BF2009531003A031D08004908C3000230C3356D
:102C0200FF3E031D002E4335243ECA004908C3007F
:102C1200C4014308B6004408B7000730B8000030CA
:102C2200B900923111229531A630C5000330C60099
:102C32003608450786003708463D8700811D232E4A
:102C42000130242E0030C8004A0886008701810125
:102C520048080319362E4A0A860087014108810076
:102C62004A0886008701C8303F2E4A0A860087013B
:102C7200410881004A0886008701883081000830B7
:102C8200C3004908C400C5014408B6004508B7009E
:102C92000730B8000030B90092311122A630C600C8
:102CA2000330C7003608460786003708473D8700CD
:102CB200430881060800F2007208031D6C2E70089A
:102CC200860087011130C03F9930C13F0430F000C7
:102CD2000030F10008007203031D7B2E700886008D
:102CE20087012630C03F9930C13F1430F0000030D8
:102CF200F100080002307206031D8B2E7008860058
:102D02008701E330C03F9830C13F1830F0000030F7
:102D1200F100080003307206031D9B2E7008860026
:102D22008701C730C03F9830C13F1C30F0000030EF
:102D3200F100080004307206031DAB2E70088600F5
:102D420087018330C03F9830C13F2630F000003009
:102D5200F100080005307206031DBB2E70088600C4
:102D62008701FB30C03F9830C13F1630F000003081
:102D7200F100080006307206031DCB2E7008860093
:102D82008701A930C03F9830C13F1E30F0000030AB
:102D9200F100080007307206031DDB2E7008860062
:102DA20087014C30C03F9930C13F0E30F0000030F7
:102DB200F1000800FF30F000FF30F10008002600AB
:102DC20031080319E92E30083D0096002600B101B2
:102DD20021004408450403194A2F003045020830F7
:102DE20003194402031CFB2E08302000CB000030E4
:102DF200CC00022F45082000CC002100440820000E
:102E0200CB004B08CD0021004E08F1004D08F00028
:102E120026002708F3002608F20020004D08C9000A
:102E2200CA014908F4004A08F50093312923963172
:102E32004D08C900CA0149082100C40220004A08FD
:102E42002100C53B20004D08C900CA0149082600DF
:102E5200A60720004A082600A73D21004408450491
:102E6200031D3F2F083020004D06031D3F2F210078
:102E7200490803193F2F2600AF01AF0A20004D0871
:102E8200C900CA014908FB004A08FC009231C0226D
:102E9200080026002F080319592F0030FB00FC0000
:102EA2009231C02296312600AF019031A020080055
:102EB20021004708031D080020006D086E04031955
:102EC200562FF201F20A21004308F4004208F300EF
:102ED20020006E088A006D080A009731562F0030D4
:102EE2004C02083003194B02031C7C2F0830D1001E
:102EF2000030D200802F4C08D2004B08D10051087C
:102F0200D7005708CF00D0014E085002031D8B2F67
:102F12004D084F02031C922F4E08D4004D08D300D7
:102F2200992F5708CF00D0014F08D3005008D40082
:102F32005308D7004E084C02031DA12F4D084B0227
:102F42000318A52F0130A62F00302100C900200050
:102F520057080319C02F21004E08F1004D08F00058
:102F620020004A08F3004908F2005708CF00D001B8
:102F72004F08F4005008F500933129239731570880
:102F8200CF00D0014F0849072600A60020005008B4
:102F92004A3D2600A70020004C084E02031DD32FF5
:102FA2004B084D02031CD92F4C08D6004B08DC2FCE
:102FB2004E08D6004D08D5005708CF00D0014F0863
:102FC20055022100C40020005008563B2100C500D4
:102FD20044084504031DF32F49080319F32F260063
:102FE200AF01AF0A2100CF1520005708CF00D00152
:102FF2004F08FB005008FC009231C022080009343F
:1030020002348334003404340134023480343234E0
:1030120008340B34003402340234023400340634EF
:1030220009340434003400340134023402340034EC
:103032000334053424340034103401340434243489
:10304200023406340534243406340034013407349F
:103052000534813403340A3400340134093404342D
:103062000134003402340A340034003404340734A6
:1030720005348234023440340034013407340534D8
:103082000234023440340034013408340B34023444
:103092000234023402340034073409340434023472
:1030A200003401340234023400340334053424344D
:1030B2000034103401340434243402340634053428
:1030C20024340634003401340734053483340334A1
:1030D2000A34003401340934043403340034023431
:1030E2000A3400340034043407340534843402349E
:1030F200403400340134073405340434023440349B
:10310200003401342634033443340034443400346C
:103112004334003420340034443400346134003405
:1031220074340034613400342034003449340034BF
:103132006E34003474340034653400347234003434
:10314200663400346134003463340034653400344E
:1031520026340334503400344934003443340034C8
:103162002034003470340034723400346F3400344C
:103172006734003472340034613400346D34003406
:103182006D34003465340034723400341C3403343A
:1031920043340034443400344334003420340034A3
:1031A200493400346E3400347434003465340034ED
:1031B20072340034663400346134003463340034D1
:1031C2006534003418340334533400347534003415
:1031D20070340034653400347234003445340034C1
:1031E2004D340034553400345A3400343834003409
:1031F2003034003416340334303400343034003484
:10320200303400343034003430340034303400345C
:10321200303400343034003430340034303400344C
:103222000434033409340434303431343234333422
:103232003434353436343734383439344134423422
:103242004334443445344634003414340334403473
:10325200003468340034613400346E34003479341C
:103262000034613400347A3400346F3400347534FD
:1032720000341234013400340234EF3402340134A5
:1032820008340934123401348834013400340134EE
:1032920002340534013426340334533400346534A3
:1032A20000347234003469340034613400346C34D4
:0232B2000034E6
:020000040001F9
:08000000FF3FFF3FFF3FFF3F00
:04000E00E40FCF37F5
:00000001FF
